{
  "transactions": [
    {
      "hash": "0x9f45f3ad37d52bf89d213e8d65a81d7e4a972c139281fdbb0b120fd9d02dc243",
      "transactionType": "CALL",
      "contractName": null,
      "contractAddress": "0xf7fbd3c0bee42c35ecdeda15f7babf6694f198f6",
      "function": "takeFlashLoan(address,uint256,address,uint256,uint256)",
      "arguments": [
        "0x4200000000000000000000000000000000000006",
        "2000000000000000000",
        "0x833589fCD6eDb6E08f4c7C32D4f71b54bdA02913",
        "6000000000",
        "7000000000"
      ],
      "transaction": {
        "from": "0x47d1111fec887a7beb7839bbf0e1b3d215669d86",
        "to": "0xf7fbd3c0bee42c35ecdeda15f7babf6694f198f6",
        "gas": "0x362af",
        "value": "0x0",
        "input": "0x7325f6c300000000000000000000000042000000000000000000000000000000000000060000000000000000000000000000000000000000000000001bc16d674ec80000000000000000000000000000833589fcd6edb6e08f4c7c32d4f71b54bda029130000000000000000000000000000000000000000000000000000000165a0bc0000000000000000000000000000000000000000000000000000000001a13b8600",
        "nonce": "0x30",
        "chainId": "0x2105"
      },
      "additionalContracts": [],
      "isFixedGasLimit": false
    }
  ],
  "receipts": [
    {
      "status": "0x1",
      "cumulativeGasUsed": "0x15e80f9",
      "logs": [
        {
          "address": "0x4200000000000000000000000000000000000006",
          "topics": [
            "0xddf252ad1be2c89b69c2b068fc378daa952ba7f163c4a11628f55a4df523b3ef",
            "0x000000000000000000000000d4a0e0b9149bcee3c920d2e00b5de09138fd8bb7",
            "0x000000000000000000000000f7fbd3c0bee42c35ecdeda15f7babf6694f198f6"
          ],
          "data": "0x0000000000000000000000000000000000000000000000001bc16d674ec80000",
          "blockHash": "0x678ed2a257824bf78d7428630a7edbc49085f20d35cf741d55e4fbd475c3a753",
          "blockNumber": "0x15ae53b",
          "blockTimestamp": "0x67402759",
          "transactionHash": "0x9f45f3ad37d52bf89d213e8d65a81d7e4a972c139281fdbb0b120fd9d02dc243",
          "transactionIndex": "0x57",
          "logIndex": "0xef",
          "removed": false
        },
        {
          "address": "0x4200000000000000000000000000000000000006",
          "topics": [
            "0x8c5be1e5ebec7d5bd14f71427d1e84f3dd0314c0f7b2291e5b200ac8c7c3b925",
            "0x000000000000000000000000f7fbd3c0bee42c35ecdeda15f7babf6694f198f6",
            "0x000000000000000000000000a238dd80c259a72e81d7e4664a9801593f98d1c5"
          ],
          "data": "0x0000000000000000000000000000000000000000000000001bc4fae5f38e8000",
          "blockHash": "0x678ed2a257824bf78d7428630a7edbc49085f20d35cf741d55e4fbd475c3a753",
          "blockNumber": "0x15ae53b",
          "blockTimestamp": "0x67402759",
          "transactionHash": "0x9f45f3ad37d52bf89d213e8d65a81d7e4a972c139281fdbb0b120fd9d02dc243",
          "transactionIndex": "0x57",
          "logIndex": "0xf0",
          "removed": false
        },
        {
          "address": "0xa238dd80c259a72e81d7e4664a9801593f98d1c5",
          "topics": [
            "0x804c9b842b2748a22bb64b345453a3de7ca54a6ca45ce00d415894979e22897a",
            "0x0000000000000000000000004200000000000000000000000000000000000006"
          ],
          "data": "0x000000000000000000000000000000000000000000104e7ac66deb1b055c7a9e000000000000000000000000000000000000000000000000000000000000000000000000000000000000000000000000000000000015d1a25bccc138b847a42f0000000000000000000000000000000000000000034a53ede79fd7eef9e3d11e000000000000000000000000000000000000000003566c121ff8d9523bbe8071",
          "blockHash": "0x678ed2a257824bf78d7428630a7edbc49085f20d35cf741d55e4fbd475c3a753",
          "blockNumber": "0x15ae53b",
          "blockTimestamp": "0x67402759",
          "transactionHash": "0x9f45f3ad37d52bf89d213e8d65a81d7e4a972c139281fdbb0b120fd9d02dc243",
          "transactionIndex": "0x57",
          "logIndex": "0xf1",
          "removed": false
        },
        {
          "address": "0x4200000000000000000000000000000000000006",
          "topics": [
            "0xddf252ad1be2c89b69c2b068fc378daa952ba7f163c4a11628f55a4df523b3ef",
            "0x000000000000000000000000f7fbd3c0bee42c35ecdeda15f7babf6694f198f6",
            "0x000000000000000000000000d4a0e0b9149bcee3c920d2e00b5de09138fd8bb7"
          ],
          "data": "0x0000000000000000000000000000000000000000000000001bc4fae5f38e8000",
          "blockHash": "0x678ed2a257824bf78d7428630a7edbc49085f20d35cf741d55e4fbd475c3a753",
          "blockNumber": "0x15ae53b",
          "blockTimestamp": "0x67402759",
          "transactionHash": "0x9f45f3ad37d52bf89d213e8d65a81d7e4a972c139281fdbb0b120fd9d02dc243",
          "transactionIndex": "0x57",
          "logIndex": "0xf2",
          "removed": false
        },
        {
          "address": "0xa238dd80c259a72e81d7e4664a9801593f98d1c5",
          "topics": [
            "0xefefaba5e921573100900a3ad9cf29f222d995fb3b6045797eaea7521bd8d6f0",
            "0x000000000000000000000000f7fbd3c0bee42c35ecdeda15f7babf6694f198f6",
            "0x0000000000000000000000004200000000000000000000000000000000000006",
            "0x0000000000000000000000000000000000000000000000000000000000000000"
          ],
          "data": "0x000000000000000000000000f7fbd3c0bee42c35ecdeda15f7babf6694f198f60000000000000000000000000000000000000000000000001bc16d674ec80000000000000000000000000000000000000000000000000000000000000000000000000000000000000000000000000000000000000000000000038d7ea4c68000",
          "blockHash": "0x678ed2a257824bf78d7428630a7edbc49085f20d35cf741d55e4fbd475c3a753",
          "blockNumber": "0x15ae53b",
          "blockTimestamp": "0x67402759",
          "transactionHash": "0x9f45f3ad37d52bf89d213e8d65a81d7e4a972c139281fdbb0b120fd9d02dc243",
          "transactionIndex": "0x57",
          "logIndex": "0xf3",
          "removed": false
        }
      ],
      "logsBloom": "0x00000000000000000000000000000000000000000000010000040000000000000020000000000000000000100000000000000000000000000020000000200000000000000000800000000008001000000000000000000000000000000000080000004000020000000000000000000800004010000000000000000010000000000000000000000000000080800000000000000000002000000000000000000000020000000000000000000100000000000000000000100000000000000000010000000002000804000000002000000000000000000000000000000000000020000010000000000020000000000000800000000000000000000000000001000000",
      "type": "0x2",
      "transactionHash": "0x9f45f3ad37d52bf89d213e8d65a81d7e4a972c139281fdbb0b120fd9d02dc243",
      "transactionIndex": "0x57",
      "blockHash": "0x678ed2a257824bf78d7428630a7edbc49085f20d35cf741d55e4fbd475c3a753",
      "blockNumber": "0x15ae53b",
      "gasUsed": "0x27377",
      "effectiveGasPrice": "0x2a4a3b",
      "from": "0x47d1111fec887a7beb7839bbf0e1b3d215669d86",
      "to": "0xf7fbd3c0bee42c35ecdeda15f7babf6694f198f6",
      "contractAddress": null,
      "l1BaseFeeScalar": "0x8dd",
      "l1BlobBaseFee": "0x50eadb3",
      "l1BlobBaseFeeScalar": "0x101c12",
      "l1Fee": "0xc215c12ea",
      "l1FeeScalar": "0.002269",
      "l1GasPrice": "0x1d36b41fc",
      "l1GasUsed": "0xb70"
    }
  ],
  "libraries": [],
  "pending": [],
  "returns": {},
  "timestamp": 1732257629,
  "chain": 8453,
  "commit": "30b5781"
}